:020000040800F2
:10000000D00600204D0200085502000857020008E3
:10001000590200085B0200085D02000800000000B1
:100020000000000000000000000000005F02000867
:100030006102000800000000630200086502000879
:1000400067020008670200086702000867020008EC
:1000500067020008670200086702000867020008DC
:1000600067020008670200086702000867020008CC
:1000700067020008670200086702000867020008BC
:1000800067020008670200086702000867020008AC
:10009000670200086702000867020008670200089C
:1000A000670200086702000867020008670200088C
:1000B000410600086702000867020008670200089E
:1000C000670200086702000867020008670200086C
:1000D000670200086702000867020008670200085C
:1000E000670200086702000867020008670200084C
:1000F000670200086702000867020008670200083C
:1001000067020008670200084D0600086702000841
:10011000670200086702000867020008670200081B
:10012000670200086702000867020008670200080B
:1001300067020008670200086702000867020008FB
:1001400067020008670200086702000867020008EB
:1001500067020008670200086702000867020008DB
:1001600067020008670200086702000867020008CB
:10017000670200086702000867020008000000002C
:1001800067020008670200086702000867020008AB
:10019000670200086702000867020008670200089B
:1001A00067020008670200086702000800F002F812
:1001B00000F03CF80AA090E8000C82448344AAF1C5
:1001C0000107DA4501D100F031F8AFF2090EBAE8C3
:1001D0000F0013F0010F18BFFB1A43F0010318477B
:1001E000D8080000F8080000103A24BF78C878C189
:1001F000FAD8520724BF30C830C144BF04680C602D
:10020000704700000023002400250026103A28BF74
:1002100078C1FBD8520728BF30C148BF0B60704778
:100220001FB500F03EFC1FBD10B510BD00F031F849
:100230001146FFF7F5FF00F08DFA00F04FF803B418
:10024000FFF7F2FF03BC00F057F8000009488047B1
:1002500009480047FEE7FEE7FEE7FEE7FEE7FEE7A8
:10026000FEE7FEE7FEE7FEE704480549054A064BC0
:1002700070470000DD050008AD010008D000002037
:10028000D0060020D0020020D00200207047704726
:100290007047754600F02CF8AE4605006946534697
:1002A00020F00700854618B020B5FFF7DDFFBDE858
:1002B00020404FF000064FF000074FF000084FF0CD
:1002C000000B21F00701AC46ACE8C009ACE8C0095E
:1002D000ACE8C009ACE8C0098D46704710B50446CB
:1002E000AFF300802046BDE81040FFF7A8BF000034
:1002F000004870477000002001491820ABBEFEE79F
:1003000026000200704700000948006840F03910DC
:1003100007490860C8140649143108600448001DE4
:10032000006840F003000249091D086070470000A2
:10033000007400400020154908600846806840F0BD
:10034000530088600846806940F2011108430F4954
:1003500088610846406940F0010048610846006A2B
:1003600040F0110008620846C06840F00600C8600E
:100370004FF4FA60C862012008604FF40800044995
:10038000086041F2100102484162704700000140DC
:1003900000100240F0200D4908600C481030006841
:1003A0000B490843094910310860081D006840F2F4
:1003B000017108430549143108604FF05530054973
:1003C000086000200349143108607047303802404B
:1003D000090000200018024010B5144800681449B4
:1003E000084312490860081D0068124908430F4974
:1003F000091D0860081D00680F4908430B490831B2
:1004000008600A4800680A498031084307490860C3
:10041000FFF7C0FF00F08AF900F07AF9FFF78AFFD2
:10042000FFF772FF00F00AF810BD0000003802402C
:100430000100000110540004009460C010B5322087
:1004400000F004F81C2000F001F810BD00F01F02BD
:10045000012191404209920002F1E022C2F800110C
:100460007047000010B52DED048B044694ED000A92
:1004700010EE101A084600F0A3FA41EC190B9FED9C
:10048000480B53EC102B00F09DF941EC180B00F0D9
:1004900067F945490860454890ED000A0846D0EDE7
:1004A000000A30EE600A424880ED000A414890EDB3
:1004B000000A4148D0ED000A3D4890ED001A00EED8
:1004C000810A3C4880ED000A90ED000A3B48D0EDDF
:1004D000000AB4EEE00AF1EE10FA05DD90ED000A34
:1004E000344880ED000A0FE0324890ED000A3448AD
:1004F000D0ED000AB4EEE00AF1EE10FA04D290ED6D
:10050000000A2C4880ED000A274890ED000A2D488B
:10051000D0ED000A30EE600A2B4880ED000A224838
:1005200090ED000A274880ED000A224890ED000A6D
:100530002648D0ED000A1E4890ED001A00EE810A10
:100540002348D0ED000A204890ED001A00EEC10AC1
:10055000204880ED000A90ED000A1848D0ED000A0E
:10056000B4EEE00AF1EE10FA05DD90ED000A19484C
:1005700080ED000A0FE0174890ED000A1048D0ED1A
:10058000000AB4EEE00AF1EE10FA04D290ED000A8F
:10059000104880ED000A0F48BDEC048B10BD000030
:1005A0000AD7A3703D0AC73F300000203C0000205E
:1005B000400000204C00002014000020000000201B
:1005C000040000203800002034000020100000202B
:1005D0001800002048000020704700001448006800
:1005E00040F47000124908601248006840F00100B1
:1005F0001049086000200F49083108600D48006864
:100600000D4908400B4908600C48091D0860081F87
:10061000006820F48020091F0860002005490C3183
:1006200008604FF0006002498039086070470000A0
:1006300088ED00E000380240FFFFF6FE1030002495
:1006400000204FF0804108614862704710B54FF4B8
:100650008040284908600020274908602649143155
:1006600008602648406B00EE100AB8EE400A2448A5
:1006700080ED000AFFF7F6FE224908600846006890
:1006800090ED000AB5EEC00AF1EE10FA13D24FF465
:1006900000601D4908601B48006890ED000ADFED0E
:1006A0001B0A30EEC00ABCEEC00A10EE100A164952
:1006B0000C39086011E01348006890ED000ADFED86
:1006C000130A30EEC00ABCEEC00A10EE100A0E4942
:1006D0000C390860C8140C4908600B4810380068D1
:1006E00040F00300084910390860481401490860C7
:1006F00010BD000014180240100C00400000014022
:100700005C000020580000201474004000000045E8
:1007100000204FF08041086040F2E730886247F6E1
:10072000FF70C8620120C860086070470020084957
:100730000860132006492831086040F29F10091D07
:100740000860012002490C310860014908607047C7
:10075000000C0040FFF740FE01E0FFF73DFFFCE723
:1007600021F00042A2F16052B2F5801F01F0004377
:1007700028BFD2F17F6C0BD95FEA001C43EAC202AA
:1007800042EB507018BF704728BF20F0010070473F
:10079000B2F5801FBCBF184670474FEA410C1CF5EC
:1007A000001F02D2084600F081B970B500F0B4F81D
:1007B00000000089FFF7F6BF4FF00040A0F5800071
:1007C00070470000DFF848C170B51CEA111E1EBF5B
:1007D0001CEA13159EEA0C0F95EA0C0F00F06F80CF
:1007E00081EA030423EA4C134EEAD47E21EA4C1139
:1007F00041F4801143F48013AE44A1FB024CA0FBF2
:100800000365AEF17F7E361955EB0C05A1FB034C59
:100810004CF10003A0FB021C16EB0C06654153F1E2
:100820000003094218BF46F0010613F4007F0BD104
:100830004FEA03314FEA0530340341EA155140EAEB
:1008400016506FF003020AE04FEAC3214FEAC520B9
:10085000F40241EA555140EA56506FF0020202EBB1
:100860002E4201EB025585EACE710AD05FEA440CB4
:1008700018BF24F0004450F1000041F1000120EACB
:10088000D47040F2FE7C624500D270BDA84214BF15
:100890004FF080444FF04044002E08BF0024BEF1CA
:1008A000806FA8BFA1F1C041BDE8704080F2828096
:1008B0004FF0000001F1C04101F0004170479EEA95
:1008C0000C0F0CEA131518BF95EA0C0F06D04FF069
:1008D000000081EA030E0EF0004170BD00F01CF82C
:1008E0008900013E00F007B800F009B84FEA430C58
:1008F0005FEA5C5C08D081EA030100F05BB84FEA74
:10090000410C5FEA5C5CF6D14FF000000149704792
:100910000000FF070000F87F0EF1020E2EF0030E1C
:100920005EF8046B364205D4012A43EB030515F546
:10093000001F12D8012841EB010C1CF5001F0CD838
:100940000ED14FEAD17C15F5001F0CEB4C0C0CF1CD
:10095000020C08BF4CEBD37C04E04FF0080C01E024
:100960004FEAD37C0CEB4C0526FA05F606F0070699
:10097000B6F1040C06D20EEB860CBDE870404CF0CC
:10098000010C6047DFE80CF0090B02024FF0004158
:100990004FF00000A1F5002170BD19461046012856
:1009A00051EB010418BFD4F5001484BF002001F0FE
:1009B000004170BD0808A0F500114FEA31017047F1
:1009C00043004FEAD30C4FEA3C0C43401FBF4007A3
:1009D0000CF1605113F0FE4F70471CF0006F03D113
:1009E00000200CF0004170470CF0004343EA5070C7
:1009F00010B540EACC0000F00EF800BF00000092F5
:100A00004FEA0001FFF7D6BF4FF000414FF0000062
:100A1000A1F5002170470EF1020E2EF0030E5EF8D4
:100A2000044B244204D44FEA4102B2F17F4F11D863
:100A30004FEA4003B3F17F4F0CD80ED14FEAD07C80
:100A4000B2F17F4F0CEB4C0C0CF1020C08BF4CEBDD
:100A5000D17C04E04FF0080C01E04FEAD17C0CEBB4
:100A60004C0324FA03F404F00704B4F1040C06D296
:100A70000EEB840CBDE810404CF0010C6047DFE841
:100A80000CF0070802024FF00040A0F5800010BDF6
:100A90000846420018BFD2F1807288BF00F00040C3
:100AA00010BD4FF04070E1EE100A7047FF2141EA9F
:100AB000D050C00570470000D80A00080000002090
:100AC00070000000E8010008480B000870000020DA
:100AD000600600000402000800E0FF44000000C5BA
:100AE00048E10A400AD7233E000080400000000091
:100AF000000048430000000000000000000000006B
:100B000000000000000000000000000000000000E5
:100B10000000000000000000000000000000A0C174
:100B200000000000000000000000000000000000C5
:100B300000000000000000000000000000000000B5
:080B4000000000005A00000053
:040000050800024DA0
:00000001FF
